S00B00004932432E737265635B
S11300000C9434000C9451000C9451000C94510045
S11300100C9451000C9451000C9451000C94510018
S11300200C9451000C9451000C9451000C94510008
S11300300C9451000C946C000C9451000C945100DD
S11300400C9451000C9451000C9421010C944F0118
S11300500C9451000C9451000C9451000C945100D8
S11300600C9451000C94510011241FBECFEFD8E022
S1130070DEBFCDBF11E0A0E0B1E0EAEDF3E002C0E5
S113008005900D92AC33B107D9F721E0ACE3B1E0B0
S113009001C01D92A138B207E1F70E9453000C94ED
S11300A0EB010C9400000E94F00087E690E00E94AF
S11300B07901E1E8F0E080818A7F80838081826039
S11300C08083EFE6F0E0808181608083789482E031
S11300D091E00E94A701FFCF1F920F920FB60F92DB
S11300E011241F932F933F934F935F936F937F93A9
S11300F08F939F93AF93BF93EF93FF93CF93DF932C
S113010000D0CDB7DEB780E390E39A8389838091F2
S11301100101823009F1833089F1813009F047C04F
S113012082E080930101809100018F5F8093000140
S1130130883709F03FC088E080930001E1E8F0E0EF
S11301408081887F80838DE191E00E94A70180E215
S113015091E00E94A7012EC080910001880F0E94A7
S1130160FF00182F0E941D01111104C083E0809329
S1130170010120C081E0809301011CC08DE191E068
S11301800E94A70184E391E00E94A70180910001ED
S113019040E1BE016F5F7F4F90E00E94B601CE0147
S11301A001960E94A70181E08093010103C081E0D0
S11301B0809301010F900F90DF91CF91FF91EF9108
S11301C0BF91AF919F918F917F916F915F914F916B
S11301D03F912F911F910F900FBE0F901F90189574
S11301E087B18F7C87B988B1806388B9E9EBF0E087
S11301F080818C7F808388E98093B800089594EA95
S11302009093BC00ECEBF0E090819923ECF78093A1
S1130210BB0084E88093BC00ECEBF0E08081882391
S1130220ECF79091B900987F983129F081E09034EF
S113023019F480E0089580E0089584E98093BC0077
S113024008951F920F920FB60F9211242F938F933C
S11302509F93EF93FF938091C0002091C6008C710F
S1130260E0913E01EF5FEF7190913D01E91739F0A4
S1130270E0933E01F0E0EF5BFE4F208301C082E09B
S113028090913C01892B80933C01FF91EF919F91C8
S11302908F912F910F900FBE0F901F9018951F9262
S11302A00F920FB60F9211248F939F93EF93FF93A6
S11302B09091400180913F01981769F0E0913F01CE
S11302C0EF5FEF71E0933F01F0E0EF59FE4F808163
S11302D08093C60005C0E1ECF0E080818F7D8083CF
S11302E0FF91EF919F918F910F900FBE0F901F90F0
S11302F018951092400110923F0110923E01109205
S11303003D0199231CF422E02093C000907890933F
S1130310C5008093C40088E98093C10086E080937F
S1130320C2000895209140012F5F2F7190913F01E9
S11303302917E1F3E22FF0E0EF59FE4F8083209379
S11303404001E1ECF0E08081806280830895CF93E6
S1130350DF93EC018881882331F021960E94920179
S113036089918111FBCFDF91CF910895BB274A304A
S113037031F4992322F4BDE2909581959F4F0C941A
S1130380C201BB27FB015527AA27880F991FAA1F63
S1130390A41710F0A41B83955051B9F7A05DAA339C
S11303A008F0A95DA193009779F7B111B193119267
S11303B0CB010C94DB01DC01FC01672F71917723E5
S11303C0E1F7329704C07C916D9370836291AE170C
S10D03D0BF07C8F30895F894FFCFA7
S11303DA07010D0A5363616E204932432D62757316
S11303EA20666F7220646576696365733A0D0A0044
S11303FA2D2D2D493243205343414E20646F6E659F
S10F040A2D2D2D006164643A2030780030
S9030000FC
