S00E000030365F6C63642E737265631E
S11300000C9434000C9451000C9451000C94510045
S11300100C9451000C9451000C9451000C94510018
S11300200C9451000C9450010C9451000C94510008
S11300300C9451000C9451000C9451000C945100F8
S11300400C9451000C9451000C9451000C945100E8
S11300500C9451000C9451000C9451000C945100D8
S11300600C9451000C94510011241FBECFEFD8E022
S1130070DEBFCDBF11E0A0E0B1E0EAE0F4E002C0F1
S113008005900D92AC31B107D9F721E0ACE1B1E0B4
S113009001C01D92AF31B207E1F70E94FE000C943B
S11300A003020C940000299A85E08A95F1F7000078
S11300B029980895CF93C82F662311F0289A01C078
S11300C02898549A559A569A579A5F985E985D98CC
S11300D05C98CC230CF45F9AC6FD5E9AC5FD5D9ACC
S11300E0C4FD5C9A0E9453005F985E985D985C988A
S11300F0C3FD5F9AC2FD5E9AC1FD5D9AC0FD5C9A24
S11301000E9453005C9A5D9A5E9A5F9A87EB9BE02B
S11301100197F1F700C00000CF91089560E00E94BC
S11301205A00089561E00E945A000895611104C0C4
S113013080580E948E00089580540E948E00089575
S113014081E00E948E00089582E00E948E0008954E
S113015061E00E945A000895CF93DF93EC01219649
S1130160FC018081882329F00E94A80089918111D3
S1130170FBCFDF91CF910895CF93C82F209A559A42
S1130180219A549A559A569A579A8FEF99EF019754
S1130190F1F700C000005D9A5C9A0E9453008FE161
S11301A09EE40197F1F700C000000E9453008FEF16
S11301B090E00197F1F700C000000E9453008FEF18
S11301C090E00197F1F700C000005C980E94530092
S11301D08FEF90E00197F1F700C0000088E20E94E1
S11301E08E0088E00E948E000E94A00086E00E949B
S11301F08E008C2F0E948E00CF9108958CE00E9477
S1130200BC0080E40E948E00C8E0D1E000E111E06F
S113021089910E9492000C171D07D1F7C0E0D1E02C
S113022008E011E089910E949200C017D107D1F72C
S113023080E80E948E000E94A40080E00E94A80032
S113024061E080E00E94960081E00E94A80060E0E6
S113025081E00E94960080E191E00E94AC0060E0A1
S11302608BE00E94960081E60E94A80061E081E094
S11302700E94960082E60E94A80061E08BE00E9442
S1130280960083E60E94A800E1EBF0E0808187609D
S11302908083E0E7F0E08081816080837894FFCF01
S11302A01F920F920FB60F9211242F933F934F93E7
S11302B05F936F937F938F939F93AF93BF93EF93CA
S11302C0FF93CF93DF9300D0CDB7DEB780E290E207
S11302D09A83898380911E018F5F863018F48093FE
S11302E01E0147C010921E0180911D018F5F8093F3
S11302F01D014AE0BE016F5F7F4F90E00E94CE0176
S113030060E087E00E949600CE0101960E94AC0056
S113031080911D01893069F510921D0180911C01A5
S11303208F5F80931C018A3028F460E085E00E948E
S1130330960004C060E084E00E94960080911C0155
S11303404AE0BE016F5F7F4F90E00E94CE01CE0174
S113035001960E94AC0080911C018B3351F41092E1
S11303601C0160E084E00E94960088E191E00E9414
S1130370AC000F900F90DF91CF91FF91EF91BF915F
S1130380AF919F918F917F916F915F914F913F9129
S11303902F910F900FBE0F901F901895BB274A30D6
S11303A031F4992322F4BDE2909581959F4F0C94EA
S11303B0DA01BB27FB015527AA27880F991FAA1F1B
S11303C0A41710F0A41B83955051B9F7A05DAA336C
S11303D008F0A95DA193009779F7B111B193119237
S11303E0CB010C94F301DC01FC01672F719177239D
S11303F0E1F7329704C07C916D9370836291AE17DC
S10D0400BF07C8F30895F894FFCF76
S113040A00000A0A00110E0004041F040404040470
S10F041A30303A30302E3000303000001A
S9030000FC
