S00C00006C6162372E73726563B2
S11300000C9434000C9451000C9451000C94510045
S11300100C9451000C9451000C9451000C94510018
S11300200C9451000C9451000C9451000C94510008
S11300300C9451000C944A010C9451000C945100FE
S11300400C9451000C9451000C94F0010C941E0279
S11300500C9451000C945F010C9451000C945100C9
S11300600C9451000C94510011241FBECFEFD8E022
S1130070DEBFCDBF11E0A0E0B1E0E8E7F5E002C0EB
S113008005900D92AE32B107D9F721E0AEE2B1E0AE
S113009001C01D92A437B207E1F70E94F6000C9448
S11300A0BA020C940000299A85E08A95F1F70000C1
S11300B029980895CF93C82F662311F0289A01C078
S11300C02898549A559A569A579A5F985E985D98CC
S11300D05C98CC230CF45F9AC6FD5E9AC5FD5D9ACC
S11300E0C4FD5C9A0E9453005F985E985D985C988A
S11300F0C3FD5F9AC2FD5E9AC1FD5D9AC0FD5C9A24
S11301000E9453005C9A5D9A5E9A5F9A87EB9BE02B
S11301100197F1F700C00000CF91089560E00E94BC
S11301205A000895611104C080580E948E000895F9
S113013080540E948E00089581E00E948E000895EC
S113014061E00E945A000895CF93DF93EC01219659
S1130150FC018081882329F00E94A00089918111EB
S1130160FBCFDF91CF910895CF93C82F209A559A52
S1130170219A549A559A569A579A8FEF99EF019764
S1130180F1F700C000005D9A5C9A0E9453008FE171
S11301909EE40197F1F700C000000E9453008FEF26
S11301A090E00197F1F700C000000E9453008FEF28
S11301B090E00197F1F700C000005C980E945300A2
S11301C08FEF90E00197F1F700C0000088E20E94F1
S11301D08E0088E00E948E000E949C0086E00E94AF
S11301E08E008C2F0E948E00CF9108958CE00E9487
S11301F0B40060E081E00E94920080E091E00E94FF
S1130200A40061E083E00E94920087E091E00E94F4
S1130210A40060E088E00E9492008CE091E00E94DB
S1130220A40060E08DE00E9492008EE091E00E94C4
S1130230A40061E088E00E94920080E191E00E94C5
S1130240A400ECE7F0E080818F7780838081806474
S113025080838081807F8083EAE7F0E0808180680A
S11302608083808188608083808187608083E1E8E7
S1130270F0E080818B7F8083808183608083EFE6E0
S1130280F0E080818160808387E690E00E944802EC
S11302907894FFCF1F920F920FB60F9211248F9371
S11302A0EF93FF93EAE7F0E0808180648083FF911D
S11302B0EF918F910F900FBE0F901F9018951F9282
S11302C00F920FB60F9211240F931F932F933F9306
S11302D04F935F936F937F938F939F93AF93BF934A
S11302E0EF93FF93CF93DF9300D000D0CDB7DEB769
S11302F060E080E00E94920080912E0181110AC08A
S113030082E191E00E94A40080912E018F5F80938E
S11303102E0106C084E191E00E94A40010922E01F7
S113032060E088E00E94920086E191E00E94A400CF
S1130330009178001091790080E290E29A83898399
S11303409C838B834AE0BE016F5F7F4FC8010E948C
S1130350850260E088E00E949200CE0101960E942E
S1130360A40040E1BE016F5F7F4FC8010E94850277
S113037060E08DE00E949200CE0101960E94A400EC
S113038061E088E00E94920086E191E00E94A4006E
S113039061E088E00E9492000D3F134020F08FE15D
S11303A091E00E94A4008AE291E00E9476020F90FC
S11303B00F900F900F90DF91CF91FF91EF91BF912C
S11303C0AF919F918F917F916F915F914F913F91E9
S11303D02F911F910F910F900FBE0F901F901895A2
S11303E01F920F920FB60F9211242F938F939F9306
S11303F0EF93FF938091C0002091C6008C71E0912F
S11304003101EF5FEF7190913001E91739F0E0931A
S11304103101F0E0EC5CFE4F208301C082E090915A
S11304202F01892B80932F01FF91EF919F918F9141
S11304302F910F900FBE0F901F9018951F920F923F
S11304400FB60F9211248F939F93EF93FF93909184
S1130450330180913201981769F0E0913201EF5F26
S1130460EF71E0933201F0E0EC5AFE4F808180930B
S1130470C60005C0E1ECF0E080818F7D8083FF91B0
S1130480EF919F918F910F900FBE0F901F90189531
S11304901092330110923201109231011092300106
S11304A099231CF422E02093C00090789093C50017
S11304B08093C40088E98093C10086E08093C200E1
S11304C00895209133012F5F2F71909132012917E4
S11304D0E1F3E22FF0E0EC5AFE4F808320933301E6
S11304E0E1ECF0E08081806280830895CF93DF9314
S11304F0EC018881882331F021960E946102899160
S11305008111FBCFDF91CF910895BB274A3031F49D
S1130510992322F4BDE2909581959F4F0C9491020A
S1130520BB27FB015527AA27880F991FAA1FA417C9
S113053010F0A41B83955051B9F7A05DAA3308F0BD
S1130540A95DA193009779F7B111B1931192CB01F1
S11305500C94AA02DC01FC01672F71917723E1F767
S1130560329704C07C916D9370836291AE17BF077C
S10B0570C8F30895F894FFCFCD
S113057876616C75653A006B65793A0061006200D2
S113058863002A004F002020202020202020006B18
S111059865795F737472696E670054550000D4
S9030000FC
