S0110000696E746572757074732E7372656325
S11300000C9434000C9446000C9446000C94460066
S11300100C9446000C9446000C9446000C94460044
S11300200C9446000C9446000C9446000C94460034
S11300300C9446000C94DB000C9446000C9446008F
S11300400C9446000C9446000C9446000C94460014
S11300500C9446000C9446000C9446000C94460004
S11300600C9446000C94460011241FBECFEFD8E038
S1130070DEBFCDBF21E0A0E0B1E001C01D92A230FF
S1130080B207E1F70E9489000C944D010C94000022
S1130090FC01408121E030E002C0220F331F6A9549
S11300A0E2F7242B20830895FC01808121E030E0D5
S11300B002C0220F331F6A95E2F7922F909589238D
S11300C080838181282B21830895FC01908121E084
S11300D030E002C0220F331F6A95E2F720952923EE
S11300E020830895FC01408121E030E002C0220F0A
S11300F0331F6A95E2F7242B20830895FC012081A5
S113010081E090E002C0880F991F6A95E2F782238C
S1130110089565E084E290E00E94480062E085E290
S113012090E00E94650064E084E290E00E94480050
S113013062E085E290E00E94650063E084E290E082
S11301400E94480062E085E290E00E94650062E05F
S113015084E290E00E94480062E085E290E00E9420
S1130160650060E08AE290E00E945400E1E8F0E07B
S113017080818A7F8083808182608083EFE6F0E0E3
S11301808081816080837894C1E8D0E060E089E276
S113019090E00E947E00882339F088818A7F8883DA
S11301A0888182608883F2CF88818B7F888388816D
S11301B083608883EBCF1F920F920FB60F921124A6
S11301C02F933F934F935F936F937F938F939F935B
S11301D0AF93BF93EF93FF9380910101811106C008
S11301E0809100018F5F8093000105C08091000120
S11301F081508093000180910001833021F481E0DB
S11302008093010104C0811102C01092010165E0D4
S113021085E290E00E94720064E085E290E00E9432
S1130220720063E085E290E00E94720062E085E281
S113023090E00E94720080910001813061F028F00A
S1130240823079F0833099F017C065E085E290E060
S11302500E94650011C064E085E290E00E946500A0
S11302600BC063E085E290E00E94650005C062E097
S113027085E290E00E946500FF91EF91BF91AF91FC
S11302809F918F917F916F915F914F913F912F91AA
S11102900F900FBE0F901F901895F894FFCF9B
S9030000FC
