S00F00007365676D656E742E7372656322
S11300000C9434000C9451000C9451000C94510045
S11300100C9451000C9451000C9451000C94510018
S11300200C9451000C94D2000C9451000C94510087
S11300300C9451000C949A000C9451000C945100AF
S11300400C9451000C9451000C9451000C945100E8
S11300500C9451000C9451000C9451000C945100D8
S11300600C9451000C94510011241FBECFEFD8E022
S1130070DEBFCDBF11E0A0E0B1E0E4E2F3E002C0F6
S113008005900D92A031B107D9F721E0A0E1B1E0CC
S113009001C01D92A331B207E1F70E9478000C94CD
S11300A090010C940000FC01408121E030E002C08A
S11300B0220F331F6A95E2F7242B20830895FC0155
S11300C0908121E030E002C0220F331F6A95E2F7ED
S11300D02095292320830895FC01408121E030E00C
S11300E002C0220F331F6A95E2F7242B2083089560
S11300F00E94100160EF80E00E9420010E948B01A9
S1130100E1E8F0E080818B7F80838081836080835D
S1130110EFE6F0E080818160808385B58C7F85BDCA
S113012085B5846085BDEEE6F0E0808181608083E2
S11301307894FFCF1F920F920FB60F9211242F9332
S11301403F934F935F936F937F938F939F93AF935B
S1130150BF93EF93FF93809100018F5F8A3019F072
S11301608093000102C01092000182E0809312018A
S113017083E08093110160910101809107010E9445
S11301802001FF91EF91BF91AF919F918F917F914A
S11301906F915F914F913F912F910F900FBE0F90F0
S11301A01F9018951F920F920FB60F9211242F9340
S11301B03F934F935F936F937F938F939F93AF93EB
S11301C0BF93EF93FF9360910101809107010E9417
S11301D020018091100181110AC060910101809178
S11301E007010E94200181E08093100108C0609102
S11301F00201809106010E94200110921001FF91DA
S1130200EF91BF91AF919F918F917F916F915F918A
S11302104F913F912F910F900FBE0F901F90189503
S113022064E08AE290E00E94530067E08AE290E092
S11302300E94530060E084E290E00E94530008951D
S11302401F93CF93DF93182FD62F64E089E290E0B9
S11302500E945F0067E089E290E00E945F0060E036
S113026085E290E00E945F0085E08A95F1F7000046
S1130270C8E010FF06C060E085E290E00E946C00D8
S113028005C060E085E290E00E945F0085E08A9509
S1130290F1F7000067E08BE290E00E946C0085E0DB
S11302A08A95F1F7000067E08BE290E00E945F001E
S11302B01695C150F1F6C8E0D0FF06C060E085E2B3
S11302C090E00E946C0005C060E085E290E00E942E
S11302D05F0085E08A95F1F7000067E08BE290E02B
S11302E00E946C0085E08A95F1F7000067E08BE2DC
S11302F090E00E945F00D695C150F1F664E08BE275
S113030090E00E946C0085E08A95F1F70000DF918F
S1130310CF911F91089560E08FEF0E94200108950E
S1070320F894FFCF7B
S1130324FF10204080039F250D9949411F010900B6
S9030000FC
