S00C00006C6162332E73726563B6
S11300000C9434000C943E000C943E000C943E007E
S11300100C943E000C943E000C943E000C943E0064
S11300200C943E000C943E000C943E000C943E0054
S11300300C943E000C943E000C943E000C943E0044
S11300400C943E000C943E000C943E000C943E0034
S11300500C943E000C943E000C943E000C943E0024
S11300600C943E000C943E0011241FBECFEFD8E048
S1130070DEBFCDBF0E946A000C9496000C94000071
S1130080FC01408121E030E002C0220F331F6A9559
S1130090E2F7242B20830895FC01808121E030E0E5
S11300A002C0220F331F6A95E2F7922F909589239D
S11300B080838181282B21830895FC01908121E094
S11300C030E002C0220F331F6A95E2F720952923FE
S11300D02083089565E084E290E00E94400065E09A
S11300E085E290E00E945D0065E087E290E00E9476
S11300F0400065E088E290E00E945D0061E088E2F3
S113010090E00E944C0090E23199FECF85B189279E
S113011085B988B1892788B92FEF39E688E121505C
S113012030408040E1F700C00000EECFF894FFCFEC
S9030000FC
